{
  "address": "0xd77772DF2729004CB2FA38e8133F103a61a776c9",
  "abi": [
    {
      "inputs": [
        {
          "internalType": "address",
          "name": "_VRFCoordinator",
          "type": "address"
        },
        {
          "internalType": "address",
          "name": "_LinkToken",
          "type": "address"
        },
        {
          "internalType": "bytes32",
          "name": "_keyHash",
          "type": "bytes32"
        },
        {
          "internalType": "uint256",
          "name": "_fee",
          "type": "uint256"
        }
      ],
      "stateMutability": "nonpayable",
      "type": "constructor"
    },
    {
      "anonymous": false,
      "inputs": [
        {
          "indexed": true,
          "internalType": "address",
          "name": "owner",
          "type": "address"
        },
        {
          "indexed": true,
          "internalType": "address",
          "name": "approved",
          "type": "address"
        },
        {
          "indexed": true,
          "internalType": "uint256",
          "name": "tokenId",
          "type": "uint256"
        }
      ],
      "name": "Approval",
      "type": "event"
    },
    {
      "anonymous": false,
      "inputs": [
        {
          "indexed": true,
          "internalType": "address",
          "name": "owner",
          "type": "address"
        },
        {
          "indexed": true,
          "internalType": "address",
          "name": "operator",
          "type": "address"
        },
        {
          "indexed": false,
          "internalType": "bool",
          "name": "approved",
          "type": "bool"
        }
      ],
      "name": "ApprovalForAll",
      "type": "event"
    },
    {
      "anonymous": false,
      "inputs": [
        {
          "indexed": true,
          "internalType": "uint256",
          "name": "tokenId",
          "type": "uint256"
        },
        {
          "indexed": false,
          "internalType": "uint256",
          "name": "randomNumber",
          "type": "uint256"
        }
      ],
      "name": "CreateUnfinishedRandomSVG",
      "type": "event"
    },
    {
      "anonymous": false,
      "inputs": [
        {
          "indexed": true,
          "internalType": "uint256",
          "name": "tokenId",
          "type": "uint256"
        },
        {
          "indexed": false,
          "internalType": "string",
          "name": "tokenURI",
          "type": "string"
        }
      ],
      "name": "CreatedRandomSVG",
      "type": "event"
    },
    {
      "anonymous": false,
      "inputs": [
        {
          "indexed": true,
          "internalType": "address",
          "name": "from",
          "type": "address"
        },
        {
          "indexed": true,
          "internalType": "address",
          "name": "to",
          "type": "address"
        },
        {
          "indexed": true,
          "internalType": "uint256",
          "name": "tokenId",
          "type": "uint256"
        }
      ],
      "name": "Transfer",
      "type": "event"
    },
    {
      "anonymous": false,
      "inputs": [
        {
          "indexed": true,
          "internalType": "bytes32",
          "name": "requestId",
          "type": "bytes32"
        },
        {
          "indexed": true,
          "internalType": "uint256",
          "name": "tokenId",
          "type": "uint256"
        }
      ],
      "name": "requestedRandomSVG",
      "type": "event"
    },
    {
      "inputs": [
        {
          "internalType": "address",
          "name": "to",
          "type": "address"
        },
        {
          "internalType": "uint256",
          "name": "tokenId",
          "type": "uint256"
        }
      ],
      "name": "approve",
      "outputs": [],
      "stateMutability": "nonpayable",
      "type": "function"
    },
    {
      "inputs": [
        {
          "internalType": "address",
          "name": "owner",
          "type": "address"
        }
      ],
      "name": "balanceOf",
      "outputs": [
        {
          "internalType": "uint256",
          "name": "",
          "type": "uint256"
        }
      ],
      "stateMutability": "view",
      "type": "function"
    },
    {
      "inputs": [
        {
          "internalType": "uint256",
          "name": "",
          "type": "uint256"
        }
      ],
      "name": "colors",
      "outputs": [
        {
          "internalType": "string",
          "name": "",
          "type": "string"
        }
      ],
      "stateMutability": "view",
      "type": "function"
    },
    {
      "inputs": [],
      "name": "create",
      "outputs": [
        {
          "internalType": "bytes32",
          "name": "requestId",
          "type": "bytes32"
        }
      ],
      "stateMutability": "nonpayable",
      "type": "function"
    },
    {
      "inputs": [],
      "name": "fee",
      "outputs": [
        {
          "internalType": "uint256",
          "name": "",
          "type": "uint256"
        }
      ],
      "stateMutability": "view",
      "type": "function"
    },
    {
      "inputs": [
        {
          "internalType": "uint256",
          "name": "",
          "type": "uint256"
        }
      ],
      "name": "fill",
      "outputs": [
        {
          "internalType": "string",
          "name": "",
          "type": "string"
        }
      ],
      "stateMutability": "view",
      "type": "function"
    },
    {
      "inputs": [
        {
          "internalType": "uint256",
          "name": "_tokenId",
          "type": "uint256"
        }
      ],
      "name": "finishMint",
      "outputs": [],
      "stateMutability": "nonpayable",
      "type": "function"
    },
    {
      "inputs": [
        {
          "internalType": "string",
          "name": "imageURI",
          "type": "string"
        }
      ],
      "name": "formatTokenURI",
      "outputs": [
        {
          "internalType": "string",
          "name": "",
          "type": "string"
        }
      ],
      "stateMutability": "pure",
      "type": "function"
    },
    {
      "inputs": [
        {
          "internalType": "uint256",
          "name": "_randomNumber",
          "type": "uint256"
        }
      ],
      "name": "generateNextPathCommand",
      "outputs": [
        {
          "internalType": "string",
          "name": "pathCommand",
          "type": "string"
        }
      ],
      "stateMutability": "view",
      "type": "function"
    },
    {
      "inputs": [
        {
          "internalType": "uint256",
          "name": "_randomNumber",
          "type": "uint256"
        }
      ],
      "name": "generatePath",
      "outputs": [
        {
          "internalType": "string",
          "name": "pathSvg",
          "type": "string"
        }
      ],
      "stateMutability": "view",
      "type": "function"
    },
    {
      "inputs": [
        {
          "internalType": "uint256",
          "name": "_randomNumber",
          "type": "uint256"
        }
      ],
      "name": "generatePathCommand",
      "outputs": [
        {
          "internalType": "string",
          "name": "pathCommand",
          "type": "string"
        }
      ],
      "stateMutability": "view",
      "type": "function"
    },
    {
      "inputs": [
        {
          "internalType": "uint256",
          "name": "_randomNumber",
          "type": "uint256"
        }
      ],
      "name": "generateSVG",
      "outputs": [
        {
          "internalType": "string",
          "name": "finalSvg",
          "type": "string"
        }
      ],
      "stateMutability": "view",
      "type": "function"
    },
    {
      "inputs": [
        {
          "internalType": "uint256",
          "name": "tokenId",
          "type": "uint256"
        }
      ],
      "name": "getApproved",
      "outputs": [
        {
          "internalType": "address",
          "name": "",
          "type": "address"
        }
      ],
      "stateMutability": "view",
      "type": "function"
    },
    {
      "inputs": [
        {
          "internalType": "address",
          "name": "owner",
          "type": "address"
        },
        {
          "internalType": "address",
          "name": "operator",
          "type": "address"
        }
      ],
      "name": "isApprovedForAll",
      "outputs": [
        {
          "internalType": "bool",
          "name": "",
          "type": "bool"
        }
      ],
      "stateMutability": "view",
      "type": "function"
    },
    {
      "inputs": [],
      "name": "keyHash",
      "outputs": [
        {
          "internalType": "bytes32",
          "name": "",
          "type": "bytes32"
        }
      ],
      "stateMutability": "view",
      "type": "function"
    },
    {
      "inputs": [],
      "name": "maxNumberofPathCommands",
      "outputs": [
        {
          "internalType": "uint256",
          "name": "",
          "type": "uint256"
        }
      ],
      "stateMutability": "view",
      "type": "function"
    },
    {
      "inputs": [],
      "name": "maxNumberofPaths",
      "outputs": [
        {
          "internalType": "uint256",
          "name": "",
          "type": "uint256"
        }
      ],
      "stateMutability": "view",
      "type": "function"
    },
    {
      "inputs": [],
      "name": "name",
      "outputs": [
        {
          "internalType": "string",
          "name": "",
          "type": "string"
        }
      ],
      "stateMutability": "view",
      "type": "function"
    },
    {
      "inputs": [
        {
          "internalType": "uint256",
          "name": "tokenId",
          "type": "uint256"
        }
      ],
      "name": "ownerOf",
      "outputs": [
        {
          "internalType": "address",
          "name": "",
          "type": "address"
        }
      ],
      "stateMutability": "view",
      "type": "function"
    },
    {
      "inputs": [
        {
          "internalType": "uint256",
          "name": "",
          "type": "uint256"
        }
      ],
      "name": "pathCommands",
      "outputs": [
        {
          "internalType": "string",
          "name": "",
          "type": "string"
        }
      ],
      "stateMutability": "view",
      "type": "function"
    },
    {
      "inputs": [
        {
          "internalType": "bytes32",
          "name": "requestId",
          "type": "bytes32"
        },
        {
          "internalType": "uint256",
          "name": "randomness",
          "type": "uint256"
        }
      ],
      "name": "rawFulfillRandomness",
      "outputs": [],
      "stateMutability": "nonpayable",
      "type": "function"
    },
    {
      "inputs": [
        {
          "internalType": "bytes32",
          "name": "",
          "type": "bytes32"
        }
      ],
      "name": "requestIdToSender",
      "outputs": [
        {
          "internalType": "address",
          "name": "",
          "type": "address"
        }
      ],
      "stateMutability": "view",
      "type": "function"
    },
    {
      "inputs": [
        {
          "internalType": "bytes32",
          "name": "",
          "type": "bytes32"
        }
      ],
      "name": "requestIdToTokenId",
      "outputs": [
        {
          "internalType": "uint256",
          "name": "",
          "type": "uint256"
        }
      ],
      "stateMutability": "view",
      "type": "function"
    },
    {
      "inputs": [
        {
          "internalType": "address",
          "name": "from",
          "type": "address"
        },
        {
          "internalType": "address",
          "name": "to",
          "type": "address"
        },
        {
          "internalType": "uint256",
          "name": "tokenId",
          "type": "uint256"
        }
      ],
      "name": "safeTransferFrom",
      "outputs": [],
      "stateMutability": "nonpayable",
      "type": "function"
    },
    {
      "inputs": [
        {
          "internalType": "address",
          "name": "from",
          "type": "address"
        },
        {
          "internalType": "address",
          "name": "to",
          "type": "address"
        },
        {
          "internalType": "uint256",
          "name": "tokenId",
          "type": "uint256"
        },
        {
          "internalType": "bytes",
          "name": "_data",
          "type": "bytes"
        }
      ],
      "name": "safeTransferFrom",
      "outputs": [],
      "stateMutability": "nonpayable",
      "type": "function"
    },
    {
      "inputs": [
        {
          "internalType": "address",
          "name": "operator",
          "type": "address"
        },
        {
          "internalType": "bool",
          "name": "approved",
          "type": "bool"
        }
      ],
      "name": "setApprovalForAll",
      "outputs": [],
      "stateMutability": "nonpayable",
      "type": "function"
    },
    {
      "inputs": [],
      "name": "size",
      "outputs": [
        {
          "internalType": "uint256",
          "name": "",
          "type": "uint256"
        }
      ],
      "stateMutability": "view",
      "type": "function"
    },
    {
      "inputs": [
        {
          "internalType": "bytes4",
          "name": "interfaceId",
          "type": "bytes4"
        }
      ],
      "name": "supportsInterface",
      "outputs": [
        {
          "internalType": "bool",
          "name": "",
          "type": "bool"
        }
      ],
      "stateMutability": "view",
      "type": "function"
    },
    {
      "inputs": [
        {
          "internalType": "string",
          "name": "svg",
          "type": "string"
        }
      ],
      "name": "svgToImageURI",
      "outputs": [
        {
          "internalType": "string",
          "name": "",
          "type": "string"
        }
      ],
      "stateMutability": "pure",
      "type": "function"
    },
    {
      "inputs": [],
      "name": "symbol",
      "outputs": [
        {
          "internalType": "string",
          "name": "",
          "type": "string"
        }
      ],
      "stateMutability": "view",
      "type": "function"
    },
    {
      "inputs": [],
      "name": "tokenCounter",
      "outputs": [
        {
          "internalType": "uint256",
          "name": "",
          "type": "uint256"
        }
      ],
      "stateMutability": "view",
      "type": "function"
    },
    {
      "inputs": [
        {
          "internalType": "uint256",
          "name": "",
          "type": "uint256"
        }
      ],
      "name": "tokenIdToRandomNumber",
      "outputs": [
        {
          "internalType": "uint256",
          "name": "",
          "type": "uint256"
        }
      ],
      "stateMutability": "view",
      "type": "function"
    },
    {
      "inputs": [
        {
          "internalType": "uint256",
          "name": "tokenId",
          "type": "uint256"
        }
      ],
      "name": "tokenURI",
      "outputs": [
        {
          "internalType": "string",
          "name": "",
          "type": "string"
        }
      ],
      "stateMutability": "view",
      "type": "function"
    },
    {
      "inputs": [
        {
          "internalType": "address",
          "name": "from",
          "type": "address"
        },
        {
          "internalType": "address",
          "name": "to",
          "type": "address"
        },
        {
          "internalType": "uint256",
          "name": "tokenId",
          "type": "uint256"
        }
      ],
      "name": "transferFrom",
      "outputs": [],
      "stateMutability": "nonpayable",
      "type": "function"
    }
  ],
  "transactionHash": "0x6c7fbb04c9c4469158327c8606adede823f23da50c62199bc963df6219b185d9",
  "args": [
    "0xb3dCcb4Cf7a26f6cf6B120Cf5A73875B7BBc655B",
    "0x01BE23585060835E02B77ef475b0Cc51aA1e0709",
    "0x2ed0feb3e7fd2022120aa84fab1945545a9f2ffc9076fd6156fa96eaff4c1311",
    "100000000000000000"
  ],
  "solcInputHash": "a4a719b56e7f271321c9d71df6d27703",
  "bytecode": "0x60c06040523480156200001157600080fd5b5060405162005d3938038062005d398339818101604052810190620000379190620007e4565b83836040518060400160405280600981526020017f52616e646f6d53564700000000000000000000000000000000000000000000008152506040518060400160405280600581526020017f72734e46540000000000000000000000000000000000000000000000000000008152508160009080519060200190620000bd9291906200054c565b508060019080519060200190620000d69291906200054c565b5050508173ffffffffffffffffffffffffffffffffffffffff1660a08173ffffffffffffffffffffffffffffffffffffffff1660601b815250508073ffffffffffffffffffffffffffffffffffffffff1660808173ffffffffffffffffffffffffffffffffffffffff1660601b81525050505080600981905550816008819055506000600a81905550600a600b819055506004600c819055506101f4600d8190555060405180608001604052806040518060400160405280600181526020017f4d0000000000000000000000000000000000000000000000000000000000000081525081526020016040518060400160405280600181526020017f4c0000000000000000000000000000000000000000000000000000000000000081525081526020016040518060400160405280600181526020017f530000000000000000000000000000000000000000000000000000000000000081525081526020016040518060400160405280600181526020017f7100000000000000000000000000000000000000000000000000000000000000815250815250600e9060046200027f929190620005dd565b506040518061012001604052806040518060400160405280600381526020017f726564000000000000000000000000000000000000000000000000000000000081525081526020016040518060400160405280600481526020017f626c75650000000000000000000000000000000000000000000000000000000081525081526020016040518060400160405280600581526020017f677265656e00000000000000000000000000000000000000000000000000000081525081526020016040518060400160405280600581526020017f626c61636b00000000000000000000000000000000000000000000000000000081525081526020016040518060400160405280600681526020017f73696c766572000000000000000000000000000000000000000000000000000081525081526020016040518060400160405280600481526020017f706c756d0000000000000000000000000000000000000000000000000000000081525081526020016040518060400160405280600a81526020017f706170617961776869700000000000000000000000000000000000000000000081525081526020016040518060400160405280600c81526020017f6d69646e69676874626c7565000000000000000000000000000000000000000081525081526020016040518060400160405280600981526020017f66697265627269636b0000000000000000000000000000000000000000000000815250815250600f906009620004af92919062000644565b5060405180604001604052806040518060400160405280600b81526020017f7472616e73706172656e7400000000000000000000000000000000000000000081525081526020016040518060400160405280600581526020017f66616c7365000000000000000000000000000000000000000000000000000000815250815250601090600262000541929190620006ab565b50505050506200094b565b8280546200055a9062000898565b90600052602060002090601f0160209004810192826200057e5760008555620005ca565b82601f106200059957805160ff1916838001178555620005ca565b82800160010185558215620005ca579182015b82811115620005c9578251825591602001919060010190620005ac565b5b509050620005d9919062000712565b5090565b82805482825590600052602060002090810192821562000631579160200282015b82811115620006305782518290805190602001906200061f9291906200054c565b5091602001919060010190620005fe565b5b50905062000640919062000731565b5090565b82805482825590600052602060002090810192821562000698579160200282015b8281111562000697578251829080519060200190620006869291906200054c565b509160200191906001019062000665565b5b509050620006a7919062000731565b5090565b828054828255906000526020600020908101928215620006ff579160200282015b82811115620006fe578251829080519060200190620006ed9291906200054c565b5091602001919060010190620006cc565b5b5090506200070e919062000731565b5090565b5b808211156200072d57600081600090555060010162000713565b5090565b5b808211156200075557600081816200074b919062000759565b5060010162000732565b5090565b508054620007679062000898565b6000825580601f106200077b57506200079c565b601f0160209004906000526020600020908101906200079b919062000712565b5b50565b600081519050620007b081620008fd565b92915050565b600081519050620007c78162000917565b92915050565b600081519050620007de8162000931565b92915050565b60008060008060808587031215620007fb57600080fd5b60006200080b878288016200079f565b94505060206200081e878288016200079f565b93505060406200083187828801620007b6565b92505060606200084487828801620007cd565b91505092959194509250565b60006200085d826200086e565b9050919050565b6000819050919050565b600073ffffffffffffffffffffffffffffffffffffffff82169050919050565b6000819050919050565b60006002820490506001821680620008b157607f821691505b60208210811415620008c857620008c7620008ce565b5b50919050565b7f4e487b7100000000000000000000000000000000000000000000000000000000600052602260045260246000fd5b620009088162000850565b81146200091457600080fd5b50565b620009228162000864565b81146200092e57600080fd5b50565b6200093c816200088e565b81146200094857600080fd5b50565b60805160601c60a05160601c6153bb6200097e600039600081816119ca015261301301526000612fd701526153bb6000f3fe608060405234801561001057600080fd5b50600436106102065760003560e01c8063809926791161011a578063b88d4fde116100ad578063d082e3811161007c578063d082e38114610695578063ddca3f43146106b3578063e985e9c5146106d1578063efc81a8c14610701578063fbfcec291461071f57610206565b8063b88d4fde146105e9578063bd11f69d14610605578063c68b49d114610635578063c87b56dd1461066557610206565b806395d89b41116100e957806395d89b41146105615780639b4af4761461057f5780639c1cd7951461059d578063a22cb465146105cd57610206565b806380992679146104c757806394985ddd146104f7578063949d225d14610513578063955968d41461053157610206565b806333af59891161019d578063624194c71161016c578063624194c7146103eb5780636352211e146104075780636dcee4ca1461043757806370a082311461046757806371aee1931461049757610206565b806333af5989146103515780633fda53891461038157806342842e0e146103b157806361728f39146103cd57610206565b8063219c0eee116101d9578063219c0eee146102a557806322881f88146102d557806323b872dd1461030557806330d871c61461032157610206565b806301ffc9a71461020b57806306fdde031461023b578063081812fc14610259578063095ea7b314610289575b600080fd5b61022560048036038101906102209190613b82565b61073d565b6040516102329190614ace565b60405180910390f35b61024361081f565b6040516102509190614b72565b60405180910390f35b610273600480360381019061026e9190613c15565b6108b1565b6040516102809190614a29565b60405180910390f35b6102a3600480360381019061029e9190613ab8565b610936565b005b6102bf60048036038101906102ba9190613b1d565b610a4e565b6040516102cc9190614a29565b60405180910390f35b6102ef60048036038101906102ea9190613b1d565b610a81565b6040516102fc9190614e14565b60405180910390f35b61031f600480360381019061031a91906139b2565b610a99565b005b61033b60048036038101906103369190613bd4565b610af9565b6040516103489190614b72565b60405180910390f35b61036b60048036038101906103669190613c15565b610b92565b6040516103789190614b72565b60405180910390f35b61039b60048036038101906103969190613c15565b610f62565b6040516103a89190614b72565b60405180910390f35b6103cb60048036038101906103c691906139b2565b61100e565b005b6103d561102e565b6040516103e29190614ae9565b60405180910390f35b61040560048036038101906104009190613c15565b611034565b005b610421600480360381019061041c9190613c15565b6111a3565b60405161042e9190614a29565b60405180910390f35b610451600480360381019061044c9190613c15565b611255565b60405161045e9190614b72565b60405180910390f35b610481600480360381019061047c919061394d565b611357565b60405161048e9190614e14565b60405180910390f35b6104b160048036038101906104ac9190613bd4565b61140f565b6040516104be9190614b72565b60405180910390f35b6104e160048036038101906104dc9190613c15565b61149c565b6040516104ee9190614b72565b60405180910390f35b610511600480360381019061050c9190613b46565b6119c8565b005b61051b611a64565b6040516105289190614e14565b60405180910390f35b61054b60048036038101906105469190613c15565b611a6a565b6040516105589190614b72565b60405180910390f35b610569611b16565b6040516105769190614b72565b60405180910390f35b610587611ba8565b6040516105949190614e14565b60405180910390f35b6105b760048036038101906105b29190613c15565b611bae565b6040516105c49190614e14565b60405180910390f35b6105e760048036038101906105e29190613a7c565b611bc6565b005b61060360048036038101906105fe9190613a01565b611d47565b005b61061f600480360381019061061a9190613c15565b611da9565b60405161062c9190614b72565b60405180910390f35b61064f600480360381019061064a9190613c15565b611e55565b60405161065c9190614b72565b60405180910390f35b61067f600480360381019061067a9190613c15565b612229565b60405161068c9190614b72565b60405180910390f35b61069d61237b565b6040516106aa9190614e14565b60405180910390f35b6106bb612381565b6040516106c89190614e14565b60405180910390f35b6106eb60048036038101906106e69190613976565b612387565b6040516106f89190614ace565b60405180910390f35b61070961241b565b6040516107169190614ae9565b60405180910390f35b6107276124e5565b6040516107349190614e14565b60405180910390f35b60007f80ac58cd000000000000000000000000000000000000000000000000000000007bffffffffffffffffffffffffffffffffffffffffffffffffffffffff1916827bffffffffffffffffffffffffffffffffffffffffffffffffffffffff1916148061080857507f5b5e139f000000000000000000000000000000000000000000000000000000007bffffffffffffffffffffffffffffffffffffffffffffffffffffffff1916827bffffffffffffffffffffffffffffffffffffffffffffffffffffffff1916145b806108185750610817826124eb565b5b9050919050565b60606000805461082e90615145565b80601f016020809104026020016040519081016040528092919081815260200182805461085a90615145565b80156108a75780601f1061087c576101008083540402835291602001916108a7565b820191906000526020600020905b81548152906001019060200180831161088a57829003601f168201915b5050505050905090565b60006108bc82612555565b6108fb576040517f08c379a00000000000000000000000000000000000000000000000000000000081526004016108f290614d54565b60405180910390fd5b6004600083815260200190815260200160002060009054906101000a900473ffffffffffffffffffffffffffffffffffffffff169050919050565b6000610941826111a3565b90508073ffffffffffffffffffffffffffffffffffffffff168373ffffffffffffffffffffffffffffffffffffffff1614156109b2576040517f08c379a00000000000000000000000000000000000000000000000000000000081526004016109a990614dd4565b60405180910390fd5b8073ffffffffffffffffffffffffffffffffffffffff166109d16125c1565b73ffffffffffffffffffffffffffffffffffffffff161480610a0057506109ff816109fa6125c1565b612387565b5b610a3f576040517f08c379a0000000000000000000000000000000000000000000000000000000008152600401610a3690614c74565b60405180910390fd5b610a4983836125c9565b505050565b60116020528060005260406000206000915054906101000a900473ffffffffffffffffffffffffffffffffffffffff1681565b60126020528060005260406000206000915090505481565b610aaa610aa46125c1565b82612682565b610ae9576040517f08c379a0000000000000000000000000000000000000000000000000000000008152600401610ae090614df4565b60405180910390fd5b610af4838383612760565b505050565b606060006040518060400160405280601a81526020017f646174613a696d6167652f7376672b786d6c3b6261736536342c00000000000081525090506000610b5f84604051602001610b4b91906147f1565b6040516020818303038152906040526129bc565b905060008282604051602001610b76929190614808565b6040516020818303038152906040529050809350505050919050565b606060006001600c5484610ba691906151d4565b610bb09190614f2c565b90506040518060400160405280600981526020017f3c7061746820643d270000000000000000000000000000000000000000000000815250915060005b81811015610c785760008482600d54610c069190614f2c565b604051602001610c17929190614e2f565b6040516020818303038152906040528051906020012060001c90506000610c3d82611e55565b90508481604051602001610c52929190614808565b604051602081830303815290604052945050508080610c7090615177565b915050610bed565b5060005b81811015610d075760008482600d54610c959190614f2c565b604051602001610ca6929190614e2f565b6040516020818303038152906040528051906020012060001c90506000610ccc8661149c565b90508481604051602001610ce1929190614808565b604051602081830303815290604052945050508080610cff90615177565b915050610c7c565b506000600f808054905085610d1c91906151d4565b81548110610d53577f4e487b7100000000000000000000000000000000000000000000000000000000600052603260045260246000fd5b906000526020600020018054610d6890615145565b80601f0160208091040260200160405190810160405280929190818152602001828054610d9490615145565b8015610de15780601f10610db657610100808354040283529160200191610de1565b820191906000526020600020905b815481529060010190602001808311610dc457829003601f168201915b5050505050905060006010808054905086610dfc91906151d4565b81548110610e33577f4e487b7100000000000000000000000000000000000000000000000000000000600052603260045260246000fd5b906000526020600020018054610e4890615145565b80601f0160208091040260200160405190810160405280929190818152602001828054610e7490615145565b8015610ec15780601f10610e9657610100808354040283529160200191610ec1565b820191906000526020600020905b815481529060010190602001808311610ea457829003601f168201915b50505050509050610f07816040518060400160405280600b81526020017f7472616e73706172656e74000000000000000000000000000000000000000000815250612b67565b15610f35578382604051602001610f1f929190614866565b6040516020818303038152906040529350610f5a565b8382604051602001610f4892919061482c565b60405160208183030381529060405293505b505050919050565b60108181548110610f7257600080fd5b906000526020600020016000915090508054610f8d90615145565b80601f0160208091040260200160405190810160405280929190818152602001828054610fb990615145565b80156110065780601f10610fdb57610100808354040283529160200191611006565b820191906000526020600020905b815481529060010190602001808311610fe957829003601f168201915b505050505081565b61102983838360405180602001604052806000815250611d47565b505050565b60085481565b600061103f82612229565b511115611081576040517f08c379a000000000000000000000000000000000000000000000000000000000815260040161107890614c54565b60405180910390fd5b80600a54116110c5576040517f08c379a00000000000000000000000000000000000000000000000000000000081526004016110bc90614cf4565b60405180910390fd5b600060136000838152602001908152602001600020541161111b576040517f08c379a000000000000000000000000000000000000000000000000000000000815260040161111290614bd4565b60405180910390fd5b600060136000838152602001908152602001600020549050600061113e82611255565b9050600061114b82610af9565b905060006111588261140f565b90506111648582612bc0565b847f15a6487b7915a7116ce2a61d43b17e9b47484b1931f3c79f2f3d139b307b3893846040516111949190614b72565b60405180910390a25050505050565b6000806002600084815260200190815260200160002060009054906101000a900473ffffffffffffffffffffffffffffffffffffffff169050600073ffffffffffffffffffffffffffffffffffffffff168173ffffffffffffffffffffffffffffffffffffffff16141561124c576040517f08c379a000000000000000000000000000000000000000000000000000000000815260040161124390614cb4565b60405180910390fd5b80915050919050565b606060006001600b548461126991906151d4565b6112739190614f2c565b9050611280600d54612c34565b61128b600d54612c34565b60405160200161129c9291906149e4565b604051602081830303815290604052915060005b8181101561132e57600084826040516020016112cd929190614e2f565b6040516020818303038152906040528051906020012060001c905060006112f382610b92565b90508481604051602001611308929190614808565b60405160208183030381529060405294505050808061132690615177565b9150506112b0565b508160405160200161134091906148f2565b604051602081830303815290604052915050919050565b60008073ffffffffffffffffffffffffffffffffffffffff168273ffffffffffffffffffffffffffffffffffffffff1614156113c8576040517f08c379a00000000000000000000000000000000000000000000000000000000081526004016113bf90614c94565b60405180910390fd5b600360008373ffffffffffffffffffffffffffffffffffffffff1673ffffffffffffffffffffffffffffffffffffffff168152602001908152602001600020549050919050565b606060006040518060400160405280601d81526020017f646174613a6170706c69636174696f6e2f6a736f6e3b6261736536342c000000815250905080611474846040516020016114609190614914565b6040516020818303038152906040526129bc565b604051602001611485929190614808565b604051602081830303815290604052915050919050565b6060600e8080549050836114b091906151d4565b815481106114e7577f4e487b7100000000000000000000000000000000000000000000000000000000600052603260045260246000fd5b9060005260206000200180546114fc90615145565b80601f016020809104026020016040519081016040528092919081815260200182805461152890615145565b80156115755780601f1061154a57610100808354040283529160200191611575565b820191906000526020600020905b81548152906001019060200180831161155857829003601f168201915b505050505090506115bb816040518060400160405280600181526020017f7100000000000000000000000000000000000000000000000000000000000000815250612b67565b806116015750611600816040518060400160405280600181526020017f5300000000000000000000000000000000000000000000000000000000000000815250612b67565b5b15611785576000600d54836002600d5461161b9190614fea565b60405160200161162c929190614e2f565b6040516020818303038152906040528051906020012060001c61164f91906151d4565b90506000600d54846003600d546116669190614fea565b604051602001611677929190614e2f565b6040516020818303038152906040528051906020012060001c61169a91906151d4565b90506000600d54856004600d546116b19190614fea565b6040516020016116c2929190614e2f565b6040516020818303038152906040528051906020012060001c6116e591906151d4565b90506000600d54866005600d546116fc9190614fea565b60405160200161170d929190614e2f565b6040516020818303038152906040528051906020012060001c61173091906151d4565b90508461173c85612c34565b61174585612c34565b61174e85612c34565b61175785612c34565b60405160200161176b959493929190614962565b6040516020818303038152906040529450505050506119c3565b6117c4816040518060400160405280600181526020017f4d00000000000000000000000000000000000000000000000000000000000000815250612b67565b8061180a5750611809816040518060400160405280600181526020017f4c00000000000000000000000000000000000000000000000000000000000000815250612b67565b5b156119c2576040518060400160405280600181526020017f530000000000000000000000000000000000000000000000000000000000000081525090506000600d54836002600d5461185c9190614fea565b60405160200161186d929190614e2f565b6040516020818303038152906040528051906020012060001c61189091906151d4565b90506000600d54846003600d546118a79190614fea565b6040516020016118b8929190614e2f565b6040516020818303038152906040528051906020012060001c6118db91906151d4565b90506000600d54856004600d546118f29190614fea565b604051602001611903929190614e2f565b6040516020818303038152906040528051906020012060001c61192691906151d4565b90506000600d54866005600d5461193d9190614fea565b60405160200161194e929190614e2f565b6040516020818303038152906040528051906020012060001c61197191906151d4565b90508461197d85612c34565b61198685612c34565b61198f85612c34565b61199885612c34565b6040516020016119ac959493929190614962565b6040516020818303038152906040529450505050505b5b919050565b7f000000000000000000000000000000000000000000000000000000000000000073ffffffffffffffffffffffffffffffffffffffff163373ffffffffffffffffffffffffffffffffffffffff1614611a56576040517f08c379a0000000000000000000000000000000000000000000000000000000008152600401611a4d90614db4565b60405180910390fd5b611a608282612e09565b5050565b600d5481565b600e8181548110611a7a57600080fd5b906000526020600020016000915090508054611a9590615145565b80601f0160208091040260200160405190810160405280929190818152602001828054611ac190615145565b8015611b0e5780601f10611ae357610100808354040283529160200191611b0e565b820191906000526020600020905b815481529060010190602001808311611af157829003601f168201915b505050505081565b606060018054611b2590615145565b80601f0160208091040260200160405190810160405280929190818152602001828054611b5190615145565b8015611b9e5780601f10611b7357610100808354040283529160200191611b9e565b820191906000526020600020905b815481529060010190602001808311611b8157829003601f168201915b5050505050905090565b600c5481565b60136020528060005260406000206000915090505481565b611bce6125c1565b73ffffffffffffffffffffffffffffffffffffffff168273ffffffffffffffffffffffffffffffffffffffff161415611c3c576040517f08c379a0000000000000000000000000000000000000000000000000000000008152600401611c3390614c14565b60405180910390fd5b8060056000611c496125c1565b73ffffffffffffffffffffffffffffffffffffffff1673ffffffffffffffffffffffffffffffffffffffff16815260200190815260200160002060008473ffffffffffffffffffffffffffffffffffffffff1673ffffffffffffffffffffffffffffffffffffffff16815260200190815260200160002060006101000a81548160ff0219169083151502179055508173ffffffffffffffffffffffffffffffffffffffff16611cf66125c1565b73ffffffffffffffffffffffffffffffffffffffff167f17307eab39ab6107e8899845ad3d59bd9653f200f220920489ca2b5937696c3183604051611d3b9190614ace565b60405180910390a35050565b611d58611d526125c1565b83612682565b611d97576040517f08c379a0000000000000000000000000000000000000000000000000000000008152600401611d8e90614df4565b60405180910390fd5b611da384848484612eb9565b50505050565b600f8181548110611db957600080fd5b906000526020600020016000915090508054611dd490615145565b80601f0160208091040260200160405190810160405280929190818152602001828054611e0090615145565b8015611e4d5780601f10611e2257610100808354040283529160200191611e4d565b820191906000526020600020905b815481529060010190602001808311611e3057829003601f168201915b505050505081565b6060600e808054905083611e6991906151d4565b81548110611ea0577f4e487b7100000000000000000000000000000000000000000000000000000000600052603260045260246000fd5b906000526020600020018054611eb590615145565b80601f0160208091040260200160405190810160405280929190818152602001828054611ee190615145565b8015611f2e5780601f10611f0357610100808354040283529160200191611f2e565b820191906000526020600020905b815481529060010190602001808311611f1157829003601f168201915b50505050509050611f74816040518060400160405280600181526020017f4d00000000000000000000000000000000000000000000000000000000000000815250612b67565b80611fba5750611fb9816040518060400160405280600181526020017f4c00000000000000000000000000000000000000000000000000000000000000815250612b67565b5b15612092576000600d54836002600d54611fd49190614fea565b604051602001611fe5929190614e2f565b6040516020818303038152906040528051906020012060001c61200891906151d4565b90506000600d54846003600d5461201f9190614fea565b604051602001612030929190614e2f565b6040516020818303038152906040528051906020012060001c61205391906151d4565b90508261205f83612c34565b61206883612c34565b60405160200161207a939291906148a0565b60405160208183030381529060405292505050612224565b6120d1816040518060400160405280600181526020017f5300000000000000000000000000000000000000000000000000000000000000815250612b67565b806121175750612116816040518060400160405280600181526020017f7100000000000000000000000000000000000000000000000000000000000000815250612b67565b5b15612223576040518060400160405280600181526020017f4d0000000000000000000000000000000000000000000000000000000000000081525090506000600d54836002600d546121699190614fea565b60405160200161217a929190614e2f565b6040516020818303038152906040528051906020012060001c61219d91906151d4565b90506000600d54846003600d546121b49190614fea565b6040516020016121c5929190614e2f565b6040516020818303038152906040528051906020012060001c6121e891906151d4565b9050826121f483612c34565b6121fd83612c34565b60405160200161220f939291906148a0565b604051602081830303815290604052925050505b5b919050565b606061223482612555565b612273576040517f08c379a000000000000000000000000000000000000000000000000000000000815260040161226a90614d34565b60405180910390fd5b600060066000848152602001908152602001600020805461229390615145565b80601f01602080910402602001604051908101604052809291908181526020018280546122bf90615145565b801561230c5780601f106122e15761010080835404028352916020019161230c565b820191906000526020600020905b8154815290600101906020018083116122ef57829003601f168201915b50505050509050600061231d612f15565b9050600081511415612333578192505050612376565b600082511115612368578082604051602001612350929190614808565b60405160208183030381529060405292505050612376565b61237184612f2c565b925050505b919050565b600a5481565b60095481565b6000600560008473ffffffffffffffffffffffffffffffffffffffff1673ffffffffffffffffffffffffffffffffffffffff16815260200190815260200160002060008373ffffffffffffffffffffffffffffffffffffffff1673ffffffffffffffffffffffffffffffffffffffff16815260200190815260200160002060009054906101000a900460ff16905092915050565b600061242b600854600954612fd3565b9050336011600083815260200190815260200160002060006101000a81548173ffffffffffffffffffffffffffffffffffffffff021916908373ffffffffffffffffffffffffffffffffffffffff1602179055506000600a5490508060126000848152602001908152602001600020819055506001600a546124ad9190614f2c565b600a8190555080827fb97343f1f2afc4959f818046ccae28fd7b05fcd2b7a7dc651cbb52a096cae03560405160405180910390a35090565b600b5481565b60007f01ffc9a7000000000000000000000000000000000000000000000000000000007bffffffffffffffffffffffffffffffffffffffffffffffffffffffff1916827bffffffffffffffffffffffffffffffffffffffffffffffffffffffff1916149050919050565b60008073ffffffffffffffffffffffffffffffffffffffff166002600084815260200190815260200160002060009054906101000a900473ffffffffffffffffffffffffffffffffffffffff1673ffffffffffffffffffffffffffffffffffffffff1614159050919050565b600033905090565b816004600083815260200190815260200160002060006101000a81548173ffffffffffffffffffffffffffffffffffffffff021916908373ffffffffffffffffffffffffffffffffffffffff160217905550808273ffffffffffffffffffffffffffffffffffffffff1661263c836111a3565b73ffffffffffffffffffffffffffffffffffffffff167f8c5be1e5ebec7d5bd14f71427d1e84f3dd0314c0f7b2291e5b200ac8c7c3b92560405160405180910390a45050565b600061268d82612555565b6126cc576040517f08c379a00000000000000000000000000000000000000000000000000000000081526004016126c390614c34565b60405180910390fd5b60006126d7836111a3565b90508073ffffffffffffffffffffffffffffffffffffffff168473ffffffffffffffffffffffffffffffffffffffff16148061274657508373ffffffffffffffffffffffffffffffffffffffff1661272e846108b1565b73ffffffffffffffffffffffffffffffffffffffff16145b8061275757506127568185612387565b5b91505092915050565b8273ffffffffffffffffffffffffffffffffffffffff16612780826111a3565b73ffffffffffffffffffffffffffffffffffffffff16146127d6576040517f08c379a00000000000000000000000000000000000000000000000000000000081526004016127cd90614d74565b60405180910390fd5b600073ffffffffffffffffffffffffffffffffffffffff168273ffffffffffffffffffffffffffffffffffffffff161415612846576040517f08c379a000000000000000000000000000000000000000000000000000000000815260040161283d90614bf4565b60405180910390fd5b612851838383613135565b61285c6000826125c9565b6001600360008573ffffffffffffffffffffffffffffffffffffffff1673ffffffffffffffffffffffffffffffffffffffff16815260200190815260200160002060008282546128ac9190615044565b925050819055506001600360008473ffffffffffffffffffffffffffffffffffffffff1673ffffffffffffffffffffffffffffffffffffffff16815260200190815260200160002060008282546129039190614f2c565b92505081905550816002600083815260200190815260200160002060006101000a81548173ffffffffffffffffffffffffffffffffffffffff021916908373ffffffffffffffffffffffffffffffffffffffff160217905550808273ffffffffffffffffffffffffffffffffffffffff168473ffffffffffffffffffffffffffffffffffffffff167fddf252ad1be2c89b69c2b068fc378daa952ba7f163c4a11628f55a4df523b3ef60405160405180910390a4505050565b60606000825114156129df57604051806020016040528060008152509050612b62565b60006040518060600160405280604081526020016153466040913990506000600360028551612a0e9190614f2c565b612a189190614fb9565b6004612a249190614fea565b90506000602082612a359190614f2c565b67ffffffffffffffff811115612a74577f4e487b7100000000000000000000000000000000000000000000000000000000600052604160045260246000fd5b6040519080825280601f01601f191660200182016040528015612aa65781602001600182028036833780820191505090505b509050818152600183018586518101602084015b81831015612b21576003830192508251603f8160121c1685015160f81b8252600182019150603f81600c1c1685015160f81b8252600182019150603f8160061c1685015160f81b8252600182019150603f811685015160f81b825260018201915050612aba565b600389510660018114612b3b5760028114612b4b57612b56565b613d3d60f01b6002830352612b56565b603d60f81b60018303525b50505050508093505050505b919050565b600081604051602001612b7a91906147f1565b6040516020818303038152906040528051906020012083604051602001612ba191906147f1565b6040516020818303038152906040528051906020012014905092915050565b612bc982612555565b612c08576040517f08c379a0000000000000000000000000000000000000000000000000000000008152600401612bff90614cd4565b60405180910390fd5b80600660008481526020019081526020016000209080519060200190612c2f929190613747565b505050565b60606000821415612c7c576040518060400160405280600181526020017f30000000000000000000000000000000000000000000000000000000000000008152509050612e04565b600082905060005b60008214612cae578080612c9790615177565b915050600a82612ca79190614fb9565b9150612c84565b60008167ffffffffffffffff811115612cf0577f4e487b7100000000000000000000000000000000000000000000000000000000600052604160045260246000fd5b6040519080825280601f01601f191660200182016040528015612d225781602001600182028036833780820191505090505b50905060008290505b60008614612dfc57600181612d409190615044565b90506000600a8088612d529190614fb9565b612d5c9190614fea565b87612d679190615044565b6030612d739190614f82565b905060008160f81b905080848481518110612db7577f4e487b7100000000000000000000000000000000000000000000000000000000600052603260045260246000fd5b60200101907effffffffffffffffffffffffffffffffffffffffffffffffffffffffffffff1916908160001a905350600a88612df39190614fb9565b97505050612d2b565b819450505050505b919050565b60006011600084815260200190815260200160002060009054906101000a900473ffffffffffffffffffffffffffffffffffffffff169050600060126000858152602001908152602001600020549050612e63828261313a565b826013600083815260200190815260200160002081905550807f972ff869438f14e62c84afd04fc5430c51062a3ef4d9d6f77210655c9b16e31284604051612eab9190614e14565b60405180910390a250505050565b612ec4848484612760565b612ed084848484613158565b612f0f576040517f08c379a0000000000000000000000000000000000000000000000000000000008152600401612f0690614b94565b60405180910390fd5b50505050565b606060405180602001604052806000815250905090565b6060612f3782612555565b612f76576040517f08c379a0000000000000000000000000000000000000000000000000000000008152600401612f6d90614d94565b60405180910390fd5b6000612f80612f15565b90506000815111612fa05760405180602001604052806000815250612fcb565b80612faa846132ef565b604051602001612fbb929190614808565b6040516020818303038152906040525b915050919050565b60007f000000000000000000000000000000000000000000000000000000000000000073ffffffffffffffffffffffffffffffffffffffff16634000aea07f000000000000000000000000000000000000000000000000000000000000000084866000604051602001613047929190614b04565b6040516020818303038152906040526040518463ffffffff1660e01b815260040161307493929190614a90565b602060405180830381600087803b15801561308e57600080fd5b505af11580156130a2573d6000803e3d6000fd5b505050506040513d601f19601f820116820180604052508101906130c69190613af4565b5060006130e984600030600760008981526020019081526020016000205461349c565b90506001600760008681526020019081526020016000205461310b9190614f2c565b600760008681526020019081526020016000208190555061312c84826134d8565b91505092915050565b505050565b61315482826040518060200160405280600081525061350b565b5050565b60006131798473ffffffffffffffffffffffffffffffffffffffff16613566565b156132e2578373ffffffffffffffffffffffffffffffffffffffff1663150b7a026131a26125c1565b8786866040518563ffffffff1660e01b81526004016131c49493929190614a44565b602060405180830381600087803b1580156131de57600080fd5b505af192505050801561320f57506040513d601f19601f8201168201806040525081019061320c9190613bab565b60015b613292573d806000811461323f576040519150601f19603f3d011682016040523d82523d6000602084013e613244565b606091505b5060008151141561328a576040517f08c379a000000000000000000000000000000000000000000000000000000000815260040161328190614b94565b60405180910390fd5b805181602001fd5b63150b7a0260e01b7bffffffffffffffffffffffffffffffffffffffffffffffffffffffff1916817bffffffffffffffffffffffffffffffffffffffffffffffffffffffff1916149150506132e7565b600190505b949350505050565b60606000821415613337576040518060400160405280600181526020017f30000000000000000000000000000000000000000000000000000000000000008152509050613497565b600082905060005b6000821461336957808061335290615177565b915050600a826133629190614fb9565b915061333f565b60008167ffffffffffffffff8111156133ab577f4e487b7100000000000000000000000000000000000000000000000000000000600052604160045260246000fd5b6040519080825280601f01601f1916602001820160405280156133dd5781602001600182028036833780820191505090505b5090505b60008514613490576001826133f69190615044565b9150600a8561340591906151d4565b60306134119190614f2c565b60f81b81838151811061344d577f4e487b7100000000000000000000000000000000000000000000000000000000600052603260045260246000fd5b60200101907effffffffffffffffffffffffffffffffffffffffffffffffffffffffffffff1916908160001a905350600a856134899190614fb9565b94506133e1565b8093505050505b919050565b6000848484846040516020016134b59493929190614b2d565b6040516020818303038152906040528051906020012060001c9050949350505050565b600082826040516020016134ed9291906147c5565b60405160208183030381529060405280519060200120905092915050565b6135158383613579565b6135226000848484613158565b613561576040517f08c379a000000000000000000000000000000000000000000000000000000000815260040161355890614b94565b60405180910390fd5b505050565b600080823b905060008111915050919050565b600073ffffffffffffffffffffffffffffffffffffffff168273ffffffffffffffffffffffffffffffffffffffff1614156135e9576040517f08c379a00000000000000000000000000000000000000000000000000000000081526004016135e090614d14565b60405180910390fd5b6135f281612555565b15613632576040517f08c379a000000000000000000000000000000000000000000000000000000000815260040161362990614bb4565b60405180910390fd5b61363e60008383613135565b6001600360008473ffffffffffffffffffffffffffffffffffffffff1673ffffffffffffffffffffffffffffffffffffffff168152602001908152602001600020600082825461368e9190614f2c565b92505081905550816002600083815260200190815260200160002060006101000a81548173ffffffffffffffffffffffffffffffffffffffff021916908373ffffffffffffffffffffffffffffffffffffffff160217905550808273ffffffffffffffffffffffffffffffffffffffff16600073ffffffffffffffffffffffffffffffffffffffff167fddf252ad1be2c89b69c2b068fc378daa952ba7f163c4a11628f55a4df523b3ef60405160405180910390a45050565b82805461375390615145565b90600052602060002090601f01602090048101928261377557600085556137bc565b82601f1061378e57805160ff19168380011785556137bc565b828001600101855582156137bc579182015b828111156137bb5782518255916020019190600101906137a0565b5b5090506137c991906137cd565b5090565b5b808211156137e65760008160009055506001016137ce565b5090565b60006137fd6137f884614e89565b614e58565b90508281526020810184848401111561381557600080fd5b613820848285615103565b509392505050565b600061383b61383684614eb9565b614e58565b90508281526020810184848401111561385357600080fd5b61385e848285615103565b509392505050565b600081359050613875816152d2565b92915050565b60008135905061388a816152e9565b92915050565b60008151905061389f816152e9565b92915050565b6000813590506138b481615300565b92915050565b6000813590506138c981615317565b92915050565b6000815190506138de81615317565b92915050565b600082601f8301126138f557600080fd5b81356139058482602086016137ea565b91505092915050565b600082601f83011261391f57600080fd5b813561392f848260208601613828565b91505092915050565b6000813590506139478161532e565b92915050565b60006020828403121561395f57600080fd5b600061396d84828501613866565b91505092915050565b6000806040838503121561398957600080fd5b600061399785828601613866565b92505060206139a885828601613866565b9150509250929050565b6000806000606084860312156139c757600080fd5b60006139d586828701613866565b93505060206139e686828701613866565b92505060406139f786828701613938565b9150509250925092565b60008060008060808587031215613a1757600080fd5b6000613a2587828801613866565b9450506020613a3687828801613866565b9350506040613a4787828801613938565b925050606085013567ffffffffffffffff811115613a6457600080fd5b613a70878288016138e4565b91505092959194509250565b60008060408385031215613a8f57600080fd5b6000613a9d85828601613866565b9250506020613aae8582860161387b565b9150509250929050565b60008060408385031215613acb57600080fd5b6000613ad985828601613866565b9250506020613aea85828601613938565b9150509250929050565b600060208284031215613b0657600080fd5b6000613b1484828501613890565b91505092915050565b600060208284031215613b2f57600080fd5b6000613b3d848285016138a5565b91505092915050565b60008060408385031215613b5957600080fd5b6000613b67858286016138a5565b9250506020613b7885828601613938565b9150509250929050565b600060208284031215613b9457600080fd5b6000613ba2848285016138ba565b91505092915050565b600060208284031215613bbd57600080fd5b6000613bcb848285016138cf565b91505092915050565b600060208284031215613be657600080fd5b600082013567ffffffffffffffff811115613c0057600080fd5b613c0c8482850161390e565b91505092915050565b600060208284031215613c2757600080fd5b6000613c3584828501613938565b91505092915050565b613c4781615078565b82525050565b613c568161508a565b82525050565b613c6581615096565b82525050565b613c7c613c7782615096565b6151c0565b82525050565b6000613c8d82614ee9565b613c978185614eff565b9350613ca7818560208601615112565b613cb0816152c1565b840191505092915050565b6000613cc682614ef4565b613cd08185614f10565b9350613ce0818560208601615112565b613ce9816152c1565b840191505092915050565b6000613cff82614ef4565b613d098185614f21565b9350613d19818560208601615112565b80840191505092915050565b6000613d32603283614f10565b91507f4552433732313a207472616e7366657220746f206e6f6e20455243373231526560008301527f63656976657220696d706c656d656e74657200000000000000000000000000006020830152604082019050919050565b6000613d98601c83614f10565b91507f4552433732313a20746f6b656e20616c7265616479206d696e746564000000006000830152602082019050919050565b6000613dd8601e83614f10565b91507f4e65656420746f207761697420666f7220636861696e6c696e6b2056524600006000830152602082019050919050565b6000613e18600a83614f21565b91507f27207374726f6b653d27000000000000000000000000000000000000000000006000830152600a82019050919050565b6000613e58601483614f21565b91507f7b226e616d65223a2022535647204e4654222c200000000000000000000000006000830152601482019050919050565b6000613e98602483614f10565b91507f4552433732313a207472616e7366657220746f20746865207a65726f2061646460008301527f72657373000000000000000000000000000000000000000000000000000000006020830152604082019050919050565b6000613efe601983614f10565b91507f4552433732313a20617070726f766520746f2063616c6c6572000000000000006000830152602082019050919050565b6000613f3e602c83614f10565b91507f4552433732313a206f70657261746f7220717565727920666f72206e6f6e657860008301527f697374656e7420746f6b656e00000000000000000000000000000000000000006020830152604082019050919050565b6000613fa4601d83614f21565b91507f272066696c6c3d277472616e73706172656e7427207374726f6b653d270000006000830152601d82019050919050565b6000613fe4600183614f21565b91507f20000000000000000000000000000000000000000000000000000000000000006000830152600182019050919050565b6000614024600383614f21565b91507f272f3e00000000000000000000000000000000000000000000000000000000006000830152600382019050919050565b6000614064601c83614f10565b91507f746f6b656e55524920697320616c7265616420616c6c207365742021000000006000830152602082019050919050565b60006140a4603883614f10565b91507f4552433732313a20617070726f76652063616c6c6572206973206e6f74206f7760008301527f6e6572206e6f7220617070726f76656420666f7220616c6c00000000000000006020830152604082019050919050565b600061410a602a83614f10565b91507f4552433732313a2062616c616e636520717565727920666f7220746865207a6560008301527f726f2061646472657373000000000000000000000000000000000000000000006020830152604082019050919050565b6000614170602983614f10565b91507f4552433732313a206f776e657220717565727920666f72206e6f6e657869737460008301527f656e7420746f6b656e00000000000000000000000000000000000000000000006020830152604082019050919050565b60006141d6602e83614f10565b91507f45524337323155524953746f726167653a2055524920736574206f66206e6f6e60008301527f6578697374656e7420746f6b656e0000000000000000000000000000000000006020830152604082019050919050565b600061423c602083614f10565b91507f546f6b656e496420686173206e6f74206265656e206d696e74656420796574216000830152602082019050919050565b600061427c600283614f21565b91507f227d0000000000000000000000000000000000000000000000000000000000006000830152600282019050919050565b60006142bc602083614f10565b91507f4552433732313a206d696e7420746f20746865207a65726f20616464726573736000830152602082019050919050565b60006142fc603183614f10565b91507f45524337323155524953746f726167653a2055524920717565727920666f722060008301527f6e6f6e6578697374656e7420746f6b656e0000000000000000000000000000006020830152604082019050919050565b6000614362602c83614f10565b91507f4552433732313a20617070726f76656420717565727920666f72206e6f6e657860008301527f697374656e7420746f6b656e00000000000000000000000000000000000000006020830152604082019050919050565b60006143c8602983614f10565b91507f4552433732313a207472616e73666572206f6620746f6b656e2074686174206960008301527f73206e6f74206f776e00000000000000000000000000000000000000000000006020830152604082019050919050565b600061442e603083614f21565b91507f3c73766720786d6c6e733d27687474703a2f2f7777772e77332e6f72672f323060008301527f30302f73766727206865696768743d27000000000000000000000000000000006020830152603082019050919050565b6000614494602f83614f10565b91507f4552433732314d657461646174613a2055524920717565727920666f72206e6f60008301527f6e6578697374656e7420746f6b656e00000000000000000000000000000000006020830152604082019050919050565b60006144fa601f83614f10565b91507f4f6e6c7920565246436f6f7264696e61746f722063616e2066756c66696c6c006000830152602082019050919050565b600061453a601283614f21565b91507f2261747472696275746573223a2022222c2000000000000000000000000000006000830152601282019050919050565b600061457a602783614f21565b91507f226465736372697074696f6e223a2022416e204e4654206261736564206f6e2060008301527f53564721222c20000000000000000000000000000000000000000000000000006020830152602782019050919050565b60006145e0602183614f10565b91507f4552433732313a20617070726f76616c20746f2063757272656e74206f776e6560008301527f72000000000000000000000000000000000000000000000000000000000000006020830152604082019050919050565b6000614646603183614f10565b91507f4552433732313a207472616e736665722063616c6c6572206973206e6f74206f60008301527f776e6572206e6f7220617070726f7665640000000000000000000000000000006020830152604082019050919050565b60006146ac600283614f21565b91507f273e0000000000000000000000000000000000000000000000000000000000006000830152600282019050919050565b60006146ec600a83614f21565b91507f22696d616765223a2022000000000000000000000000000000000000000000006000830152600a82019050919050565b600061472c600683614f21565b91507f3c2f7376673e00000000000000000000000000000000000000000000000000006000830152600682019050919050565b600061476c600983614f21565b91507f272077696474683d2700000000000000000000000000000000000000000000006000830152600982019050919050565b6147a8816150ec565b82525050565b6147bf6147ba826150ec565b6151ca565b82525050565b60006147d18285613c6b565b6020820191506147e182846147ae565b6020820191508190509392505050565b60006147fd8284613cf4565b915081905092915050565b60006148148285613cf4565b91506148208284613cf4565b91508190509392505050565b60006148388285613cf4565b915061484382613e0b565b915061484f8284613cf4565b915061485a82614017565b91508190509392505050565b60006148728285613cf4565b915061487d82613f97565b91506148898284613cf4565b915061489482614017565b91508190509392505050565b60006148ac8286613cf4565b91506148b782613fd7565b91506148c38285613cf4565b91506148ce82613fd7565b91506148da8284613cf4565b91506148e582613fd7565b9150819050949350505050565b60006148fe8284613cf4565b91506149098261471f565b915081905092915050565b600061491f82613e4b565b915061492a8261456d565b91506149358261452d565b9150614940826146df565b915061494c8284613cf4565b91506149578261426f565b915081905092915050565b600061496d82613fd7565b91506149798288613cf4565b915061498482613fd7565b91506149908287613cf4565b915061499b82613fd7565b91506149a78286613cf4565b91506149b282613fd7565b91506149be8285613cf4565b91506149c982613fd7565b91506149d58284613cf4565b91508190509695505050505050565b60006149ef82614421565b91506149fb8285613cf4565b9150614a068261475f565b9150614a128284613cf4565b9150614a1d8261469f565b91508190509392505050565b6000602082019050614a3e6000830184613c3e565b92915050565b6000608082019050614a596000830187613c3e565b614a666020830186613c3e565b614a73604083018561479f565b8181036060830152614a858184613c82565b905095945050505050565b6000606082019050614aa56000830186613c3e565b614ab2602083018561479f565b8181036040830152614ac48184613c82565b9050949350505050565b6000602082019050614ae36000830184613c4d565b92915050565b6000602082019050614afe6000830184613c5c565b92915050565b6000604082019050614b196000830185613c5c565b614b26602083018461479f565b9392505050565b6000608082019050614b426000830187613c5c565b614b4f602083018661479f565b614b5c6040830185613c3e565b614b69606083018461479f565b95945050505050565b60006020820190508181036000830152614b8c8184613cbb565b905092915050565b60006020820190508181036000830152614bad81613d25565b9050919050565b60006020820190508181036000830152614bcd81613d8b565b9050919050565b60006020820190508181036000830152614bed81613dcb565b9050919050565b60006020820190508181036000830152614c0d81613e8b565b9050919050565b60006020820190508181036000830152614c2d81613ef1565b9050919050565b60006020820190508181036000830152614c4d81613f31565b9050919050565b60006020820190508181036000830152614c6d81614057565b9050919050565b60006020820190508181036000830152614c8d81614097565b9050919050565b60006020820190508181036000830152614cad816140fd565b9050919050565b60006020820190508181036000830152614ccd81614163565b9050919050565b60006020820190508181036000830152614ced816141c9565b9050919050565b60006020820190508181036000830152614d0d8161422f565b9050919050565b60006020820190508181036000830152614d2d816142af565b9050919050565b60006020820190508181036000830152614d4d816142ef565b9050919050565b60006020820190508181036000830152614d6d81614355565b9050919050565b60006020820190508181036000830152614d8d816143bb565b9050919050565b60006020820190508181036000830152614dad81614487565b9050919050565b60006020820190508181036000830152614dcd816144ed565b9050919050565b60006020820190508181036000830152614ded816145d3565b9050919050565b60006020820190508181036000830152614e0d81614639565b9050919050565b6000602082019050614e29600083018461479f565b92915050565b6000604082019050614e44600083018561479f565b614e51602083018461479f565b9392505050565b6000604051905081810181811067ffffffffffffffff82111715614e7f57614e7e615292565b5b8060405250919050565b600067ffffffffffffffff821115614ea457614ea3615292565b5b601f19601f8301169050602081019050919050565b600067ffffffffffffffff821115614ed457614ed3615292565b5b601f19601f8301169050602081019050919050565b600081519050919050565b600081519050919050565b600082825260208201905092915050565b600082825260208201905092915050565b600081905092915050565b6000614f37826150ec565b9150614f42836150ec565b9250827fffffffffffffffffffffffffffffffffffffffffffffffffffffffffffffffff03821115614f7757614f76615205565b5b828201905092915050565b6000614f8d826150f6565b9150614f98836150f6565b92508260ff03821115614fae57614fad615205565b5b828201905092915050565b6000614fc4826150ec565b9150614fcf836150ec565b925082614fdf57614fde615234565b5b828204905092915050565b6000614ff5826150ec565b9150615000836150ec565b9250817fffffffffffffffffffffffffffffffffffffffffffffffffffffffffffffffff048311821515161561503957615038615205565b5b828202905092915050565b600061504f826150ec565b915061505a836150ec565b92508282101561506d5761506c615205565b5b828203905092915050565b6000615083826150cc565b9050919050565b60008115159050919050565b6000819050919050565b60007fffffffff0000000000000000000000000000000000000000000000000000000082169050919050565b600073ffffffffffffffffffffffffffffffffffffffff82169050919050565b6000819050919050565b600060ff82169050919050565b82818337600083830152505050565b60005b83811015615130578082015181840152602081019050615115565b8381111561513f576000848401525b50505050565b6000600282049050600182168061515d57607f821691505b6020821081141561517157615170615263565b5b50919050565b6000615182826150ec565b91507fffffffffffffffffffffffffffffffffffffffffffffffffffffffffffffffff8214156151b5576151b4615205565b5b600182019050919050565b6000819050919050565b6000819050919050565b60006151df826150ec565b91506151ea836150ec565b9250826151fa576151f9615234565b5b828206905092915050565b7f4e487b7100000000000000000000000000000000000000000000000000000000600052601160045260246000fd5b7f4e487b7100000000000000000000000000000000000000000000000000000000600052601260045260246000fd5b7f4e487b7100000000000000000000000000000000000000000000000000000000600052602260045260246000fd5b7f4e487b7100000000000000000000000000000000000000000000000000000000600052604160045260246000fd5b6000601f19601f8301169050919050565b6152db81615078565b81146152e657600080fd5b50565b6152f28161508a565b81146152fd57600080fd5b50565b61530981615096565b811461531457600080fd5b50565b615320816150a0565b811461532b57600080fd5b50565b615337816150ec565b811461534257600080fd5b5056fe4142434445464748494a4b4c4d4e4f505152535455565758595a6162636465666768696a6b6c6d6e6f707172737475767778797a303132333435363738392b2fa2646970667358221220ed2d8d259f187446a25dd1e957c7e0825a796f3d9bdbeffdf0a83edf6e578dae64736f6c63430008000033",
  "devdoc": {
    "kind": "dev",
    "methods": {
      "approve(address,uint256)": {
        "details": "See {IERC721-approve}."
      },
      "balanceOf(address)": {
        "details": "See {IERC721-balanceOf}."
      },
      "getApproved(uint256)": {
        "details": "See {IERC721-getApproved}."
      },
      "isApprovedForAll(address,address)": {
        "details": "See {IERC721-isApprovedForAll}."
      },
      "name()": {
        "details": "See {IERC721Metadata-name}."
      },
      "ownerOf(uint256)": {
        "details": "See {IERC721-ownerOf}."
      },
      "safeTransferFrom(address,address,uint256)": {
        "details": "See {IERC721-safeTransferFrom}."
      },
      "safeTransferFrom(address,address,uint256,bytes)": {
        "details": "See {IERC721-safeTransferFrom}."
      },
      "setApprovalForAll(address,bool)": {
        "details": "See {IERC721-setApprovalForAll}."
      },
      "supportsInterface(bytes4)": {
        "details": "See {IERC165-supportsInterface}."
      },
      "symbol()": {
        "details": "See {IERC721Metadata-symbol}."
      },
      "tokenURI(uint256)": {
        "details": "See {IERC721Metadata-tokenURI}."
      },
      "transferFrom(address,address,uint256)": {
        "details": "See {IERC721-transferFrom}."
      }
    },
    "version": 1
  },
  "userdoc": {
    "kind": "user",
    "methods": {},
    "version": 1
  },
  "storageLayout": {
    "storage": [
      {
        "astId": 291,
        "contract": "contracts/RandomSVG.sol:RandomSVG",
        "label": "_name",
        "offset": 0,
        "slot": "0",
        "type": "t_string_storage"
      },
      {
        "astId": 293,
        "contract": "contracts/RandomSVG.sol:RandomSVG",
        "label": "_symbol",
        "offset": 0,
        "slot": "1",
        "type": "t_string_storage"
      },
      {
        "astId": 297,
        "contract": "contracts/RandomSVG.sol:RandomSVG",
        "label": "_owners",
        "offset": 0,
        "slot": "2",
        "type": "t_mapping(t_uint256,t_address)"
      },
      {
        "astId": 301,
        "contract": "contracts/RandomSVG.sol:RandomSVG",
        "label": "_balances",
        "offset": 0,
        "slot": "3",
        "type": "t_mapping(t_address,t_uint256)"
      },
      {
        "astId": 305,
        "contract": "contracts/RandomSVG.sol:RandomSVG",
        "label": "_tokenApprovals",
        "offset": 0,
        "slot": "4",
        "type": "t_mapping(t_uint256,t_address)"
      },
      {
        "astId": 311,
        "contract": "contracts/RandomSVG.sol:RandomSVG",
        "label": "_operatorApprovals",
        "offset": 0,
        "slot": "5",
        "type": "t_mapping(t_address,t_mapping(t_address,t_bool))"
      },
      {
        "astId": 1228,
        "contract": "contracts/RandomSVG.sol:RandomSVG",
        "label": "_tokenURIs",
        "offset": 0,
        "slot": "6",
        "type": "t_mapping(t_uint256,t_string_storage)"
      },
      {
        "astId": 79,
        "contract": "contracts/RandomSVG.sol:RandomSVG",
        "label": "nonces",
        "offset": 0,
        "slot": "7",
        "type": "t_mapping(t_bytes32,t_uint256)"
      },
      {
        "astId": 1989,
        "contract": "contracts/RandomSVG.sol:RandomSVG",
        "label": "keyHash",
        "offset": 0,
        "slot": "8",
        "type": "t_bytes32"
      },
      {
        "astId": 1991,
        "contract": "contracts/RandomSVG.sol:RandomSVG",
        "label": "fee",
        "offset": 0,
        "slot": "9",
        "type": "t_uint256"
      },
      {
        "astId": 1993,
        "contract": "contracts/RandomSVG.sol:RandomSVG",
        "label": "tokenCounter",
        "offset": 0,
        "slot": "10",
        "type": "t_uint256"
      },
      {
        "astId": 1995,
        "contract": "contracts/RandomSVG.sol:RandomSVG",
        "label": "maxNumberofPaths",
        "offset": 0,
        "slot": "11",
        "type": "t_uint256"
      },
      {
        "astId": 1997,
        "contract": "contracts/RandomSVG.sol:RandomSVG",
        "label": "maxNumberofPathCommands",
        "offset": 0,
        "slot": "12",
        "type": "t_uint256"
      },
      {
        "astId": 1999,
        "contract": "contracts/RandomSVG.sol:RandomSVG",
        "label": "size",
        "offset": 0,
        "slot": "13",
        "type": "t_uint256"
      },
      {
        "astId": 2002,
        "contract": "contracts/RandomSVG.sol:RandomSVG",
        "label": "pathCommands",
        "offset": 0,
        "slot": "14",
        "type": "t_array(t_string_storage)dyn_storage"
      },
      {
        "astId": 2005,
        "contract": "contracts/RandomSVG.sol:RandomSVG",
        "label": "colors",
        "offset": 0,
        "slot": "15",
        "type": "t_array(t_string_storage)dyn_storage"
      },
      {
        "astId": 2008,
        "contract": "contracts/RandomSVG.sol:RandomSVG",
        "label": "fill",
        "offset": 0,
        "slot": "16",
        "type": "t_array(t_string_storage)dyn_storage"
      },
      {
        "astId": 2012,
        "contract": "contracts/RandomSVG.sol:RandomSVG",
        "label": "requestIdToSender",
        "offset": 0,
        "slot": "17",
        "type": "t_mapping(t_bytes32,t_address)"
      },
      {
        "astId": 2016,
        "contract": "contracts/RandomSVG.sol:RandomSVG",
        "label": "requestIdToTokenId",
        "offset": 0,
        "slot": "18",
        "type": "t_mapping(t_bytes32,t_uint256)"
      },
      {
        "astId": 2020,
        "contract": "contracts/RandomSVG.sol:RandomSVG",
        "label": "tokenIdToRandomNumber",
        "offset": 0,
        "slot": "19",
        "type": "t_mapping(t_uint256,t_uint256)"
      }
    ],
    "types": {
      "t_address": {
        "encoding": "inplace",
        "label": "address",
        "numberOfBytes": "20"
      },
      "t_array(t_string_storage)dyn_storage": {
        "base": "t_string_storage",
        "encoding": "dynamic_array",
        "label": "string[]",
        "numberOfBytes": "32"
      },
      "t_bool": {
        "encoding": "inplace",
        "label": "bool",
        "numberOfBytes": "1"
      },
      "t_bytes32": {
        "encoding": "inplace",
        "label": "bytes32",
        "numberOfBytes": "32"
      },
      "t_mapping(t_address,t_bool)": {
        "encoding": "mapping",
        "key": "t_address",
        "label": "mapping(address => bool)",
        "numberOfBytes": "32",
        "value": "t_bool"
      },
      "t_mapping(t_address,t_mapping(t_address,t_bool))": {
        "encoding": "mapping",
        "key": "t_address",
        "label": "mapping(address => mapping(address => bool))",
        "numberOfBytes": "32",
        "value": "t_mapping(t_address,t_bool)"
      },
      "t_mapping(t_address,t_uint256)": {
        "encoding": "mapping",
        "key": "t_address",
        "label": "mapping(address => uint256)",
        "numberOfBytes": "32",
        "value": "t_uint256"
      },
      "t_mapping(t_bytes32,t_address)": {
        "encoding": "mapping",
        "key": "t_bytes32",
        "label": "mapping(bytes32 => address)",
        "numberOfBytes": "32",
        "value": "t_address"
      },
      "t_mapping(t_bytes32,t_uint256)": {
        "encoding": "mapping",
        "key": "t_bytes32",
        "label": "mapping(bytes32 => uint256)",
        "numberOfBytes": "32",
        "value": "t_uint256"
      },
      "t_mapping(t_uint256,t_address)": {
        "encoding": "mapping",
        "key": "t_uint256",
        "label": "mapping(uint256 => address)",
        "numberOfBytes": "32",
        "value": "t_address"
      },
      "t_mapping(t_uint256,t_string_storage)": {
        "encoding": "mapping",
        "key": "t_uint256",
        "label": "mapping(uint256 => string)",
        "numberOfBytes": "32",
        "value": "t_string_storage"
      },
      "t_mapping(t_uint256,t_uint256)": {
        "encoding": "mapping",
        "key": "t_uint256",
        "label": "mapping(uint256 => uint256)",
        "numberOfBytes": "32",
        "value": "t_uint256"
      },
      "t_string_storage": {
        "encoding": "bytes",
        "label": "string",
        "numberOfBytes": "32"
      },
      "t_uint256": {
        "encoding": "inplace",
        "label": "uint256",
        "numberOfBytes": "32"
      }
    }
  }
}